{
  "contractName": "TransactionManager",
  "abi": [
    {
      "inputs": [
        {
          "internalType": "address",
          "name": "_electricityTokenAddress",
          "type": "address"
        }
      ],
      "stateMutability": "nonpayable",
      "type": "constructor"
    },
    {
      "inputs": [
        {
          "internalType": "address",
          "name": "owner",
          "type": "address"
        }
      ],
      "name": "OwnableInvalidOwner",
      "type": "error"
    },
    {
      "inputs": [
        {
          "internalType": "address",
          "name": "account",
          "type": "address"
        }
      ],
      "name": "OwnableUnauthorizedAccount",
      "type": "error"
    },
    {
      "anonymous": false,
      "inputs": [
        {
          "indexed": true,
          "internalType": "address",
          "name": "previousOwner",
          "type": "address"
        },
        {
          "indexed": true,
          "internalType": "address",
          "name": "newOwner",
          "type": "address"
        }
      ],
      "name": "OwnershipTransferred",
      "type": "event"
    },
    {
      "anonymous": false,
      "inputs": [
        {
          "indexed": true,
          "internalType": "uint256",
          "name": "transactionId",
          "type": "uint256"
        }
      ],
      "name": "TransactionCompleted",
      "type": "event"
    },
    {
      "anonymous": false,
      "inputs": [
        {
          "indexed": true,
          "internalType": "uint256",
          "name": "transactionId",
          "type": "uint256"
        },
        {
          "indexed": true,
          "internalType": "address",
          "name": "seller",
          "type": "address"
        },
        {
          "indexed": true,
          "internalType": "address",
          "name": "buyer",
          "type": "address"
        },
        {
          "indexed": false,
          "internalType": "uint256",
          "name": "amount",
          "type": "uint256"
        },
        {
          "indexed": false,
          "internalType": "uint256",
          "name": "price",
          "type": "uint256"
        }
      ],
      "name": "TransactionProposed",
      "type": "event"
    },
    {
      "anonymous": false,
      "inputs": [
        {
          "indexed": true,
          "internalType": "uint256",
          "name": "transactionId",
          "type": "uint256"
        },
        {
          "indexed": true,
          "internalType": "address",
          "name": "verifier",
          "type": "address"
        },
        {
          "indexed": false,
          "internalType": "bool",
          "name": "approved",
          "type": "bool"
        }
      ],
      "name": "TransactionVerified",
      "type": "event"
    },
    {
      "inputs": [],
      "name": "electricityToken",
      "outputs": [
        {
          "internalType": "contract ElectricityToken",
          "name": "",
          "type": "address"
        }
      ],
      "stateMutability": "view",
      "type": "function",
      "constant": true
    },
    {
      "inputs": [],
      "name": "governmentVerifier",
      "outputs": [
        {
          "internalType": "address",
          "name": "",
          "type": "address"
        }
      ],
      "stateMutability": "view",
      "type": "function",
      "constant": true
    },
    {
      "inputs": [
        {
          "internalType": "address",
          "name": "",
          "type": "address"
        }
      ],
      "name": "isBuyer",
      "outputs": [
        {
          "internalType": "bool",
          "name": "",
          "type": "bool"
        }
      ],
      "stateMutability": "view",
      "type": "function",
      "constant": true
    },
    {
      "inputs": [
        {
          "internalType": "address",
          "name": "",
          "type": "address"
        }
      ],
      "name": "isSeller",
      "outputs": [
        {
          "internalType": "bool",
          "name": "",
          "type": "bool"
        }
      ],
      "stateMutability": "view",
      "type": "function",
      "constant": true
    },
    {
      "inputs": [],
      "name": "nextTransactionId",
      "outputs": [
        {
          "internalType": "uint256",
          "name": "",
          "type": "uint256"
        }
      ],
      "stateMutability": "view",
      "type": "function",
      "constant": true
    },
    {
      "inputs": [],
      "name": "owner",
      "outputs": [
        {
          "internalType": "address",
          "name": "",
          "type": "address"
        }
      ],
      "stateMutability": "view",
      "type": "function",
      "constant": true
    },
    {
      "inputs": [],
      "name": "renounceOwnership",
      "outputs": [],
      "stateMutability": "nonpayable",
      "type": "function"
    },
    {
      "inputs": [
        {
          "internalType": "uint256",
          "name": "",
          "type": "uint256"
        }
      ],
      "name": "transactions",
      "outputs": [
        {
          "internalType": "address",
          "name": "seller",
          "type": "address"
        },
        {
          "internalType": "address",
          "name": "buyer",
          "type": "address"
        },
        {
          "internalType": "uint256",
          "name": "amount",
          "type": "uint256"
        },
        {
          "internalType": "uint256",
          "name": "price",
          "type": "uint256"
        },
        {
          "internalType": "uint256",
          "name": "timestamp",
          "type": "uint256"
        },
        {
          "internalType": "enum TransactionManager.TransactionStatus",
          "name": "status",
          "type": "uint8"
        },
        {
          "internalType": "bool",
          "name": "governmentVerified",
          "type": "bool"
        }
      ],
      "stateMutability": "view",
      "type": "function",
      "constant": true
    },
    {
      "inputs": [
        {
          "internalType": "address",
          "name": "newOwner",
          "type": "address"
        }
      ],
      "name": "transferOwnership",
      "outputs": [],
      "stateMutability": "nonpayable",
      "type": "function"
    },
    {
      "stateMutability": "payable",
      "type": "receive",
      "payable": true
    },
    {
      "inputs": [
        {
          "internalType": "address",
          "name": "_seller",
          "type": "address"
        },
        {
          "internalType": "bool",
          "name": "_status",
          "type": "bool"
        }
      ],
      "name": "setSeller",
      "outputs": [],
      "stateMutability": "nonpayable",
      "type": "function"
    },
    {
      "inputs": [
        {
          "internalType": "address",
          "name": "_buyer",
          "type": "address"
        },
        {
          "internalType": "bool",
          "name": "_status",
          "type": "bool"
        }
      ],
      "name": "setBuyer",
      "outputs": [],
      "stateMutability": "nonpayable",
      "type": "function"
    },
    {
      "inputs": [
        {
          "internalType": "address",
          "name": "_newVerifier",
          "type": "address"
        }
      ],
      "name": "setGovernmentVerifier",
      "outputs": [],
      "stateMutability": "nonpayable",
      "type": "function"
    },
    {
      "inputs": [
        {
          "internalType": "address",
          "name": "_buyer",
          "type": "address"
        },
        {
          "internalType": "uint256",
          "name": "_amount",
          "type": "uint256"
        },
        {
          "internalType": "uint256",
          "name": "_price",
          "type": "uint256"
        }
      ],
      "name": "proposeTransaction",
      "outputs": [
        {
          "internalType": "uint256",
          "name": "",
          "type": "uint256"
        }
      ],
      "stateMutability": "nonpayable",
      "type": "function"
    },
    {
      "inputs": [
        {
          "internalType": "uint256",
          "name": "_transactionId",
          "type": "uint256"
        },
        {
          "internalType": "bool",
          "name": "_approved",
          "type": "bool"
        }
      ],
      "name": "verifyPayment",
      "outputs": [],
      "stateMutability": "nonpayable",
      "type": "function"
    },
    {
      "inputs": [
        {
          "internalType": "uint256",
          "name": "_transactionId",
          "type": "uint256"
        }
      ],
      "name": "completeTransaction",
      "outputs": [],
      "stateMutability": "payable",
      "type": "function",
      "payable": true
    }
  ],
  "bytecode": "0x608060405234801562000010575f80fd5b5060405162001f0338038062001f03833981810160405281019062000036919062000269565b335f73ffffffffffffffffffffffffffffffffffffffff168173ffffffffffffffffffffffffffffffffffffffff1603620000aa575f6040517f1e4fbdf7000000000000000000000000000000000000000000000000000000008152600401620000a19190620002aa565b60405180910390fd5b620000bb816200014360201b60201c565b508060015f6101000a81548173ffffffffffffffffffffffffffffffffffffffff021916908373ffffffffffffffffffffffffffffffffffffffff1602179055503360065f6101000a81548173ffffffffffffffffffffffffffffffffffffffff021916908373ffffffffffffffffffffffffffffffffffffffff16021790555050620002c5565b5f805f9054906101000a900473ffffffffffffffffffffffffffffffffffffffff169050815f806101000a81548173ffffffffffffffffffffffffffffffffffffffff021916908373ffffffffffffffffffffffffffffffffffffffff1602179055508173ffffffffffffffffffffffffffffffffffffffff168173ffffffffffffffffffffffffffffffffffffffff167f8be0079c531659141344cd1fd0a4f28419497f9722a3daafe3b4186f6b6457e060405160405180910390a35050565b5f80fd5b5f73ffffffffffffffffffffffffffffffffffffffff82169050919050565b5f620002338262000208565b9050919050565b620002458162000227565b811462000250575f80fd5b50565b5f8151905062000263816200023a565b92915050565b5f6020828403121562000281576200028062000204565b5b5f620002908482850162000253565b91505092915050565b620002a48162000227565b82525050565b5f602082019050620002bf5f83018462000299565b92915050565b611c3080620002d35f395ff3fe6080604052600436106100eb575f3560e01c8063d7ca38f311610089578063f134ef5211610058578063f134ef52146102f6578063f2fde38b14610320578063f4532ee614610348578063f5e83e1714610372576100f2565b8063d7ca38f314610240578063e29983c51461026a578063e8314d4614610292578063ee95feaf146102ba576100f2565b806387880a88116100c557806387880a88146101705780638da5cb5b146101985780639ace38c2146101c2578063c399d91514610204576100f2565b80632a55feec146100f65780636e4977ea14610132578063715018a61461015a576100f2565b366100f257005b5f80fd5b348015610101575f80fd5b5061011c600480360381019061011791906111eb565b61038e565b6040516101299190611230565b60405180910390f35b34801561013d575f80fd5b50610158600480360381019061015391906111eb565b6103ab565b005b348015610165575f80fd5b5061016e6103f6565b005b34801561017b575f80fd5b50610196600480360381019061019191906112a6565b610409565b005b3480156101a3575f80fd5b506101ac6105f6565b6040516101b991906112f3565b60405180910390f35b3480156101cd575f80fd5b506101e860048036038101906101e3919061130c565b61061d565b6040516101fb97969594939291906113b9565b60405180910390f35b34801561020f575f80fd5b5061022a60048036038101906102259190611426565b6106b2565b6040516102379190611476565b60405180910390f35b34801561024b575f80fd5b50610254610aaa565b6040516102619190611476565b60405180910390f35b348015610275575f80fd5b50610290600480360381019061028b919061148f565b610ab0565b005b34801561029d575f80fd5b506102b860048036038101906102b3919061148f565b610b10565b005b3480156102c5575f80fd5b506102e060048036038101906102db91906111eb565b610b70565b6040516102ed9190611230565b60405180910390f35b348015610301575f80fd5b5061030a610b8d565b60405161031791906112f3565b60405180910390f35b34801561032b575f80fd5b50610346600480360381019061034191906111eb565b610bb2565b005b348015610353575f80fd5b5061035c610c36565b6040516103699190611528565b60405180910390f35b61038c6004803603810190610387919061130c565b610c5b565b005b6005602052805f5260405f205f915054906101000a900460ff1681565b6103b361103e565b8060065f6101000a81548173ffffffffffffffffffffffffffffffffffffffff021916908373ffffffffffffffffffffffffffffffffffffffff16021790555050565b6103fe61103e565b6104075f6110c5565b565b60065f9054906101000a900473ffffffffffffffffffffffffffffffffffffffff1673ffffffffffffffffffffffffffffffffffffffff163373ffffffffffffffffffffffffffffffffffffffff1614610498576040517f08c379a000000000000000000000000000000000000000000000000000000000815260040161048f906115c1565b60405180910390fd5b5f60025f8481526020019081526020015f2090505f60038111156104bf576104be611346565b5b816005015f9054906101000a900460ff1660038111156104e2576104e1611346565b5b14610522576040517f08c379a00000000000000000000000000000000000000000000000000000000081526004016105199061164f565b60405180910390fd5b818160050160016101000a81548160ff0219169083151502179055508115610575576001816005015f6101000a81548160ff0219169083600381111561056b5761056a611346565b5b02179055506105a2565b6002816005015f6101000a81548160ff0219169083600381111561059c5761059b611346565b5b02179055505b3373ffffffffffffffffffffffffffffffffffffffff16837f63d403b31c3d84cac44f8e85ab20d65160ffce07c7d7c6c5d1969cf0fffc81f4846040516105e99190611230565b60405180910390a3505050565b5f805f9054906101000a900473ffffffffffffffffffffffffffffffffffffffff16905090565b6002602052805f5260405f205f91509050805f015f9054906101000a900473ffffffffffffffffffffffffffffffffffffffff1690806001015f9054906101000a900473ffffffffffffffffffffffffffffffffffffffff1690806002015490806003015490806004015490806005015f9054906101000a900460ff16908060050160019054906101000a900460ff16905087565b5f60045f3373ffffffffffffffffffffffffffffffffffffffff1673ffffffffffffffffffffffffffffffffffffffff1681526020019081526020015f205f9054906101000a900460ff1661073c576040517f08c379a0000000000000000000000000000000000000000000000000000000008152600401610733906116dd565b60405180910390fd5b60055f8573ffffffffffffffffffffffffffffffffffffffff1673ffffffffffffffffffffffffffffffffffffffff1681526020019081526020015f205f9054906101000a900460ff166107c5576040517f08c379a00000000000000000000000000000000000000000000000000000000081526004016107bc90611745565b60405180910390fd5b8260015f9054906101000a900473ffffffffffffffffffffffffffffffffffffffff1673ffffffffffffffffffffffffffffffffffffffff166370a08231336040518263ffffffff1660e01b815260040161082091906112f3565b602060405180830381865afa15801561083b573d5f803e3d5ffd5b505050506040513d601f19601f8201168201806040525081019061085f9190611777565b10156108a0576040517f08c379a000000000000000000000000000000000000000000000000000000000815260040161089790611812565b60405180910390fd5b5f60035f8154809291906108b39061185d565b9190505590506040518060e001604052803373ffffffffffffffffffffffffffffffffffffffff1681526020018673ffffffffffffffffffffffffffffffffffffffff1681526020018581526020018481526020014281526020015f600381111561092157610920611346565b5b81526020015f151581525060025f8381526020019081526020015f205f820151815f015f6101000a81548173ffffffffffffffffffffffffffffffffffffffff021916908373ffffffffffffffffffffffffffffffffffffffff1602179055506020820151816001015f6101000a81548173ffffffffffffffffffffffffffffffffffffffff021916908373ffffffffffffffffffffffffffffffffffffffff16021790555060408201518160020155606082015181600301556080820151816004015560a0820151816005015f6101000a81548160ff02191690836003811115610a0f57610a0e611346565b5b021790555060c08201518160050160016101000a81548160ff0219169083151502179055509050508473ffffffffffffffffffffffffffffffffffffffff163373ffffffffffffffffffffffffffffffffffffffff16827f7966777f22269826dc962bb944e1ccd5035b35495fe8b4519bd6ac6b6052ee4b8787604051610a979291906118a4565b60405180910390a4809150509392505050565b60035481565b610ab861103e565b8060045f8473ffffffffffffffffffffffffffffffffffffffff1673ffffffffffffffffffffffffffffffffffffffff1681526020019081526020015f205f6101000a81548160ff0219169083151502179055505050565b610b1861103e565b8060055f8473ffffffffffffffffffffffffffffffffffffffff1673ffffffffffffffffffffffffffffffffffffffff1681526020019081526020015f205f6101000a81548160ff0219169083151502179055505050565b6004602052805f5260405f205f915054906101000a900460ff1681565b60065f9054906101000a900473ffffffffffffffffffffffffffffffffffffffff1681565b610bba61103e565b5f73ffffffffffffffffffffffffffffffffffffffff168173ffffffffffffffffffffffffffffffffffffffff1603610c2a575f6040517f1e4fbdf7000000000000000000000000000000000000000000000000000000008152600401610c2191906112f3565b60405180910390fd5b610c33816110c5565b50565b60015f9054906101000a900473ffffffffffffffffffffffffffffffffffffffff1681565b60055f3373ffffffffffffffffffffffffffffffffffffffff1673ffffffffffffffffffffffffffffffffffffffff1681526020019081526020015f205f9054906101000a900460ff16610ce4576040517f08c379a0000000000000000000000000000000000000000000000000000000008152600401610cdb9061193b565b60405180910390fd5b5f60025f8381526020019081526020015f2090503373ffffffffffffffffffffffffffffffffffffffff16816001015f9054906101000a900473ffffffffffffffffffffffffffffffffffffffff1673ffffffffffffffffffffffffffffffffffffffff1614610d89576040517f08c379a0000000000000000000000000000000000000000000000000000000008152600401610d80906119c9565b60405180910390fd5b60016003811115610d9d57610d9c611346565b5b816005015f9054906101000a900460ff166003811115610dc057610dbf611346565b5b14610e00576040517f08c379a0000000000000000000000000000000000000000000000000000000008152600401610df790611a57565b60405180910390fd5b80600301548160020154610e149190611a75565b3414610e55576040517f08c379a0000000000000000000000000000000000000000000000000000000008152600401610e4c90611b00565b60405180910390fd5b60015f9054906101000a900473ffffffffffffffffffffffffffffffffffffffff1673ffffffffffffffffffffffffffffffffffffffff166323b872dd825f015f9054906101000a900473ffffffffffffffffffffffffffffffffffffffff16836001015f9054906101000a900473ffffffffffffffffffffffffffffffffffffffff1684600201546040518463ffffffff1660e01b8152600401610efc93929190611b1e565b6020604051808303815f875af1158015610f18573d5f803e3d5ffd5b505050506040513d601f19601f82011682018060405250810190610f3c9190611b67565b610f7b576040517f08c379a0000000000000000000000000000000000000000000000000000000008152600401610f7290611bdc565b60405180910390fd5b805f015f9054906101000a900473ffffffffffffffffffffffffffffffffffffffff1673ffffffffffffffffffffffffffffffffffffffff166108fc3490811502906040515f60405180830381858888f19350505050158015610fe0573d5f803e3d5ffd5b506003816005015f6101000a81548160ff0219169083600381111561100857611007611346565b5b0217905550817f161186077e0cdfa49fae16d54ce01ea091439dbf14243419593fa6c051c906c860405160405180910390a25050565b611046611186565b73ffffffffffffffffffffffffffffffffffffffff166110646105f6565b73ffffffffffffffffffffffffffffffffffffffff16146110c357611087611186565b6040517f118cdaa70000000000000000000000000000000000000000000000000000000081526004016110ba91906112f3565b60405180910390fd5b565b5f805f9054906101000a900473ffffffffffffffffffffffffffffffffffffffff169050815f806101000a81548173ffffffffffffffffffffffffffffffffffffffff021916908373ffffffffffffffffffffffffffffffffffffffff1602179055508173ffffffffffffffffffffffffffffffffffffffff168173ffffffffffffffffffffffffffffffffffffffff167f8be0079c531659141344cd1fd0a4f28419497f9722a3daafe3b4186f6b6457e060405160405180910390a35050565b5f33905090565b5f80fd5b5f73ffffffffffffffffffffffffffffffffffffffff82169050919050565b5f6111ba82611191565b9050919050565b6111ca816111b0565b81146111d4575f80fd5b50565b5f813590506111e5816111c1565b92915050565b5f60208284031215611200576111ff61118d565b5b5f61120d848285016111d7565b91505092915050565b5f8115159050919050565b61122a81611216565b82525050565b5f6020820190506112435f830184611221565b92915050565b5f819050919050565b61125b81611249565b8114611265575f80fd5b50565b5f8135905061127681611252565b92915050565b61128581611216565b811461128f575f80fd5b50565b5f813590506112a08161127c565b92915050565b5f80604083850312156112bc576112bb61118d565b5b5f6112c985828601611268565b92505060206112da85828601611292565b9150509250929050565b6112ed816111b0565b82525050565b5f6020820190506113065f8301846112e4565b92915050565b5f602082840312156113215761132061118d565b5b5f61132e84828501611268565b91505092915050565b61134081611249565b82525050565b7f4e487b71000000000000000000000000000000000000000000000000000000005f52602160045260245ffd5b6004811061138457611383611346565b5b50565b5f81905061139482611373565b919050565b5f6113a382611387565b9050919050565b6113b381611399565b82525050565b5f60e0820190506113cc5f83018a6112e4565b6113d960208301896112e4565b6113e66040830188611337565b6113f36060830187611337565b6114006080830186611337565b61140d60a08301856113aa565b61141a60c0830184611221565b98975050505050505050565b5f805f6060848603121561143d5761143c61118d565b5b5f61144a868287016111d7565b935050602061145b86828701611268565b925050604061146c86828701611268565b9150509250925092565b5f6020820190506114895f830184611337565b92915050565b5f80604083850312156114a5576114a461118d565b5b5f6114b2858286016111d7565b92505060206114c385828601611292565b9150509250929050565b5f819050919050565b5f6114f06114eb6114e684611191565b6114cd565b611191565b9050919050565b5f611501826114d6565b9050919050565b5f611512826114f7565b9050919050565b61152281611508565b82525050565b5f60208201905061153b5f830184611519565b92915050565b5f82825260208201905092915050565b7f4f6e6c792074686520676f7665726e6d656e742076657269666965722063616e5f8201527f20766572696679207061796d656e747300000000000000000000000000000000602082015250565b5f6115ab603083611541565b91506115b682611551565b604082019050919050565b5f6020820190508181035f8301526115d88161159f565b9050919050565b7f5472616e73616374696f6e206973206e6f742070656e64696e672076657269665f8201527f69636174696f6e00000000000000000000000000000000000000000000000000602082015250565b5f611639602783611541565b9150611644826115df565b604082019050919050565b5f6020820190508181035f8301526116668161162d565b9050919050565b7f4f6e6c792073656c6c6572732063616e2070726f706f7365207472616e7361635f8201527f74696f6e73000000000000000000000000000000000000000000000000000000602082015250565b5f6116c7602583611541565b91506116d28261166d565b604082019050919050565b5f6020820190508181035f8301526116f4816116bb565b9050919050565b7f4275796572206973206e6f7420726567697374657265640000000000000000005f82015250565b5f61172f601783611541565b915061173a826116fb565b602082019050919050565b5f6020820190508181035f83015261175c81611723565b9050919050565b5f8151905061177181611252565b92915050565b5f6020828403121561178c5761178b61118d565b5b5f61179984828501611763565b91505092915050565b7f53656c6c65722068617320696e73756666696369656e7420656c6563747269635f8201527f69747920756e6974730000000000000000000000000000000000000000000000602082015250565b5f6117fc602983611541565b9150611807826117a2565b604082019050919050565b5f6020820190508181035f830152611829816117f0565b9050919050565b7f4e487b71000000000000000000000000000000000000000000000000000000005f52601160045260245ffd5b5f61186782611249565b91507fffffffffffffffffffffffffffffffffffffffffffffffffffffffffffffffff820361189957611898611830565b5b600182019050919050565b5f6040820190506118b75f830185611337565b6118c46020830184611337565b9392505050565b7f4f6e6c792072656769737465726564206275796572732063616e20636f6d706c5f8201527f657465207472616e73616374696f6e7300000000000000000000000000000000602082015250565b5f611925603083611541565b9150611930826118cb565b604082019050919050565b5f6020820190508181035f83015261195281611919565b9050919050565b7f596f7520617265206e6f742074686520627579657220666f72207468697320745f8201527f72616e73616374696f6e00000000000000000000000000000000000000000000602082015250565b5f6119b3602a83611541565b91506119be82611959565b604082019050919050565b5f6020820190508181035f8301526119e0816119a7565b9050919050565b7f5472616e73616374696f6e206e6f7420617070726f76656420627920676f76655f8201527f726e6d656e740000000000000000000000000000000000000000000000000000602082015250565b5f611a41602683611541565b9150611a4c826119e7565b604082019050919050565b5f6020820190508181035f830152611a6e81611a35565b9050919050565b5f611a7f82611249565b9150611a8a83611249565b9250828202611a9881611249565b91508282048414831517611aaf57611aae611830565b5b5092915050565b7f496e636f7272656374207061796d656e7420616d6f756e7400000000000000005f82015250565b5f611aea601883611541565b9150611af582611ab6565b602082019050919050565b5f6020820190508181035f830152611b1781611ade565b9050919050565b5f606082019050611b315f8301866112e4565b611b3e60208301856112e4565b611b4b6040830184611337565b949350505050565b5f81519050611b618161127c565b92915050565b5f60208284031215611b7c57611b7b61118d565b5b5f611b8984828501611b53565b91505092915050565b7f456c65637472696369747920756e6974207472616e73666572206661696c65645f82015250565b5f611bc6602083611541565b9150611bd182611b92565b602082019050919050565b5f6020820190508181035f830152611bf381611bba565b905091905056fea2646970667358221220e456d6cab1a21deb40df9303e7c249994114d4793ecbf587ce4486db7db18c7d64736f6c63430008140033",
  "immutableReferences": {},
  "source": "// SPDX-License-Identifier: MIT\npragma solidity ^0.8.0;\n\nimport \"@openzeppelin/contracts/access/Ownable.sol\";\nimport \"./ElectricityToken.sol\"; // Assuming ElectricityToken is in the same directory\n\ncontract TransactionManager is Ownable(msg.sender) {\n    ElectricityToken public electricityToken;\n\n    // Enum for transaction status\n    enum TransactionStatus { Pending, Approved, Rejected, Completed }\n\n    // Struct to store transaction details\n    struct ElectricityTransaction {\n        address seller;\n        address buyer;\n        uint256 amount; // Amount of electricity units\n        uint256 price;  // Price per unit (e.g., in Wei or a stablecoin)\n        uint256 timestamp;\n        TransactionStatus status;\n        bool governmentVerified;\n    }\n\n    // Mapping to store all transactions by a unique ID\n    mapping(uint256 => ElectricityTransaction) public transactions;\n    uint256 public nextTransactionId;\n\n    // Role-based access control (simplified for example)\n    mapping(address => bool) public isSeller;\n    mapping(address => bool) public isBuyer;\n    address public governmentVerifier; // Address of the government entity\n\n    event TransactionProposed(uint256 indexed transactionId, address indexed seller, address indexed buyer, uint256 amount, uint256 price);\n    event TransactionVerified(uint256 indexed transactionId, address indexed verifier, bool approved);\n    event TransactionCompleted(uint256 indexed transactionId);\n\n    constructor(address _electricityTokenAddress) {\n        electricityToken = ElectricityToken(_electricityTokenAddress);\n        governmentVerifier = msg.sender; // Owner is initially the government verifier\n    }\n\n    // --- Role Management (Owner can set roles) ---\n    function setSeller(address _seller, bool _status) public onlyOwner {\n        isSeller[_seller] = _status;\n    }\n\n    function setBuyer(address _buyer, bool _status) public onlyOwner {\n        isBuyer[_buyer] = _status;\n    }\n\n    function setGovernmentVerifier(address _newVerifier) public onlyOwner {\n        governmentVerifier = _newVerifier;\n    }\n\n    // --- Seller Functionality ---\n    function proposeTransaction(address _buyer, uint256 _amount, uint256 _price) public returns (uint256) {\n        require(isSeller[msg.sender], \"Only sellers can propose transactions\");\n        require(isBuyer[_buyer], \"Buyer is not registered\");\n        require(electricityToken.balanceOf(msg.sender) >= _amount, \"Seller has insufficient electricity units\");\n\n        uint256 transactionId = nextTransactionId++;\n        transactions[transactionId] = ElectricityTransaction({\n            seller: msg.sender,\n            buyer: _buyer,\n            amount: _amount,\n            price: _price,\n            timestamp: block.timestamp,\n            status: TransactionStatus.Pending,\n            governmentVerified: false\n        });\n\n        emit TransactionProposed(transactionId, msg.sender, _buyer, _amount, _price);\n        return transactionId;\n    }\n\n    // --- Government Functionality ---\n    function verifyPayment(uint256 _transactionId, bool _approved) public {\n        require(msg.sender == governmentVerifier, \"Only the government verifier can verify payments\");\n        ElectricityTransaction storage tx = transactions[_transactionId];\n        require(tx.status == TransactionStatus.Pending, \"Transaction is not pending verification\");\n\n        tx.governmentVerified = _approved;\n        if (_approved) {\n            tx.status = TransactionStatus.Approved;\n        } else {\n            tx.status = TransactionStatus.Rejected;\n        }\n        emit TransactionVerified(_transactionId, msg.sender, _approved);\n    }\n\n    // --- Buyer Functionality ---\n    function completeTransaction(uint256 _transactionId) public payable {\n        require(isBuyer[msg.sender], \"Only registered buyers can complete transactions\");\n        ElectricityTransaction storage tx = transactions[_transactionId];\n        require(tx.buyer == msg.sender, \"You are not the buyer for this transaction\");\n        require(tx.status == TransactionStatus.Approved, \"Transaction not approved by government\");\n        require(msg.value == tx.amount * tx.price, \"Incorrect payment amount\");\n\n        // Transfer electricity units from seller to buyer\n        require(electricityToken.transferFrom(tx.seller, tx.buyer, tx.amount), \"Electricity unit transfer failed\");\n\n        // Transfer payment (Ether/Native currency) from buyer to seller\n        payable(tx.seller).transfer(msg.value);\n\n        tx.status = TransactionStatus.Completed;\n        emit TransactionCompleted(_transactionId);\n    }\n\n    // Fallback function to receive Ether\n    receive() external payable {}\n}",
  "sourcePath": "/Users/user26/Projex/SolarDraft1/backend/contracts/TransactionManager.sol",
  "compiler": {
    "name": "solc",
    "version": "0.8.20+commit.a1b79de6.Emscripten.clang"
  },
  "schemaVersion": "3.4.16",
  "updatedAt": "2025-08-05T11:24:24.883Z",
  "networkType": "ethereum",
  "devdoc": {
    "errors": {
      "OwnableInvalidOwner(address)": [
        {
          "details": "The owner is not a valid owner account. (eg. `address(0)`)"
        }
      ],
      "OwnableUnauthorizedAccount(address)": [
        {
          "details": "The caller account is not authorized to perform an operation."
        }
      ]
    },
    "kind": "dev",
    "methods": {
      "owner()": {
        "details": "Returns the address of the current owner."
      },
      "renounceOwnership()": {
        "details": "Leaves the contract without owner. It will not be possible to call `onlyOwner` functions. Can only be called by the current owner. NOTE: Renouncing ownership will leave the contract without an owner, thereby disabling any functionality that is only available to the owner."
      },
      "transferOwnership(address)": {
        "details": "Transfers ownership of the contract to a new account (`newOwner`). Can only be called by the current owner."
      }
    },
    "version": 1
  },
  "userdoc": {
    "kind": "user",
    "methods": {},
    "version": 1
  }
}